{
  "contractName": "CryptostanMarketContract",
  "abi": [
    {
      "anonymous": false,
      "inputs": [
        {
          "indexed": false,
          "internalType": "uint256",
          "name": "id",
          "type": "uint256"
        },
        {
          "indexed": false,
          "internalType": "uint256",
          "name": "tokenId",
          "type": "uint256"
        },
        {
          "indexed": false,
          "internalType": "address",
          "name": "tokenAddress",
          "type": "address"
        },
        {
          "indexed": false,
          "internalType": "uint256",
          "name": "askingPrice",
          "type": "uint256"
        }
      ],
      "name": "itemAdded",
      "type": "event"
    },
    {
      "anonymous": false,
      "inputs": [
        {
          "indexed": false,
          "internalType": "uint256",
          "name": "id",
          "type": "uint256"
        },
        {
          "indexed": false,
          "internalType": "address",
          "name": "buyer",
          "type": "address"
        },
        {
          "indexed": false,
          "internalType": "uint256",
          "name": "askingPrice",
          "type": "uint256"
        }
      ],
      "name": "itemSold",
      "type": "event"
    },
    {
      "inputs": [
        {
          "internalType": "uint256",
          "name": "",
          "type": "uint256"
        }
      ],
      "name": "itemsForSale",
      "outputs": [
        {
          "internalType": "uint256",
          "name": "id",
          "type": "uint256"
        },
        {
          "internalType": "address",
          "name": "tokenAddress",
          "type": "address"
        },
        {
          "internalType": "uint256",
          "name": "tokenId",
          "type": "uint256"
        },
        {
          "internalType": "address payable",
          "name": "seller",
          "type": "address"
        },
        {
          "internalType": "uint256",
          "name": "askingPrice",
          "type": "uint256"
        },
        {
          "internalType": "bool",
          "name": "isSold",
          "type": "bool"
        }
      ],
      "stateMutability": "view",
      "type": "function",
      "constant": true
    },
    {
      "inputs": [
        {
          "internalType": "uint256",
          "name": "tokenId",
          "type": "uint256"
        },
        {
          "internalType": "address",
          "name": "tokenAddress",
          "type": "address"
        },
        {
          "internalType": "uint256",
          "name": "askingPrice",
          "type": "uint256"
        }
      ],
      "name": "addItemToMarket",
      "outputs": [
        {
          "internalType": "uint256",
          "name": "",
          "type": "uint256"
        }
      ],
      "stateMutability": "nonpayable",
      "type": "function"
    },
    {
      "inputs": [
        {
          "internalType": "uint256",
          "name": "id",
          "type": "uint256"
        }
      ],
      "name": "buyItem",
      "outputs": [],
      "stateMutability": "payable",
      "type": "function",
      "payable": true
    }
  ],
  "bytecode": "0x608060405234801561001057600080fd5b5061117e806100206000396000f3fe6080604052600436106100345760003560e01c8063092d0afc146100395780634abc22021461007b578063e7fb74c7146100b8575b600080fd5b34801561004557600080fd5b50610060600480360381019061005b9190610c21565b6100d4565b60405161007296959493929190610cda565b60405180910390f35b34801561008757600080fd5b506100a2600480360381019061009d9190610d67565b61016d565b6040516100af9190610dba565b60405180910390f35b6100d260048036038101906100cd9190610c21565b6105cc565b005b600081815481106100e457600080fd5b90600052602060002090600602016000915090508060000154908060010160009054906101000a900473ffffffffffffffffffffffffffffffffffffffff16908060020154908060030160009054906101000a900473ffffffffffffffffffffffffffffffffffffffff16908060040154908060050160009054906101000a900460ff16905086565b6000828460008290503373ffffffffffffffffffffffffffffffffffffffff168173ffffffffffffffffffffffffffffffffffffffff16636352211e846040518263ffffffff1660e01b81526004016101c69190610dba565b602060405180830381865afa1580156101e3573d6000803e3d6000fd5b505050506040513d601f19601f820116820180604052508101906102079190610dea565b73ffffffffffffffffffffffffffffffffffffffff161461022757600080fd5b858760008290503073ffffffffffffffffffffffffffffffffffffffff168173ffffffffffffffffffffffffffffffffffffffff1663081812fc846040518263ffffffff1660e01b815260040161027e9190610dba565b602060405180830381865afa15801561029b573d6000803e3d6000fd5b505050506040513d601f19601f820116820180604052508101906102bf9190610dea565b73ffffffffffffffffffffffffffffffffffffffff16146102df57600080fd5b60001515600160008b73ffffffffffffffffffffffffffffffffffffffff1673ffffffffffffffffffffffffffffffffffffffff16815260200190815260200160002060008c815260200190815260200160002060009054906101000a900460ff16151514610383576040517f08c379a000000000000000000000000000000000000000000000000000000000815260040161037a90610e74565b60405180910390fd5b60008080549050905060006040518060c001604052808381526020018c73ffffffffffffffffffffffffffffffffffffffff1681526020018d81526020013373ffffffffffffffffffffffffffffffffffffffff1681526020018b81526020016000151581525090806001815401808255809150506001900390600052602060002090600602016000909190919091506000820151816000015560208201518160010160006101000a81548173ffffffffffffffffffffffffffffffffffffffff021916908373ffffffffffffffffffffffffffffffffffffffff1602179055506040820151816002015560608201518160030160006101000a81548173ffffffffffffffffffffffffffffffffffffffff021916908373ffffffffffffffffffffffffffffffffffffffff1602179055506080820151816004015560a08201518160050160006101000a81548160ff021916908315150217905550505060018060008c73ffffffffffffffffffffffffffffffffffffffff1673ffffffffffffffffffffffffffffffffffffffff16815260200190815260200160002060008d815260200190815260200160002060006101000a81548160ff021916908315150217905550806000828154811061055e5761055d610e94565b5b9060005260206000209060060201600001541461057e5761057d610ec3565b5b7fd3742413e0092c98517699ed9f8567218c740a5a265a7a986d9430d597937522818c8c8c6040516105b39493929190610ef2565b60405180910390a1809750505050505050509392505050565b8060008054905081108015610605575080600082815481106105f1576105f0610e94565b5b906000526020600020906006020160000154145b610644576040517f08c379a000000000000000000000000000000000000000000000000000000000815260040161063b90610f83565b60405180910390fd5b81600015156000828154811061065d5761065c610e94565b5b906000526020600020906006020160050160009054906101000a900460ff161515146106be576040517f08c379a00000000000000000000000000000000000000000000000000000000081526004016106b590610fef565b60405180910390fd5b600083815481106106d2576106d1610e94565b5b906000526020600020906006020160010160009054906101000a900473ffffffffffffffffffffffffffffffffffffffff166000848154811061071857610717610e94565b5b90600052602060002090600602016002015460008290503073ffffffffffffffffffffffffffffffffffffffff168173ffffffffffffffffffffffffffffffffffffffff1663081812fc846040518263ffffffff1660e01b815260040161077f9190610dba565b602060405180830381865afa15801561079c573d6000803e3d6000fd5b505050506040513d601f19601f820116820180604052508101906107c09190610dea565b73ffffffffffffffffffffffffffffffffffffffff16146107e057600080fd5b600086815481106107f4576107f3610e94565b5b906000526020600020906006020160040154341015610848576040517f08c379a000000000000000000000000000000000000000000000000000000000815260040161083f9061105b565b60405180910390fd5b6000868154811061085c5761085b610e94565b5b906000526020600020906006020160030160009054906101000a900473ffffffffffffffffffffffffffffffffffffffff1673ffffffffffffffffffffffffffffffffffffffff163373ffffffffffffffffffffffffffffffffffffffff16036108c557600080fd5b6001600087815481106108db576108da610e94565b5b906000526020600020906006020160050160006101000a81548160ff02191690831515021790555060006001600080898154811061091c5761091b610e94565b5b906000526020600020906006020160010160009054906101000a900473ffffffffffffffffffffffffffffffffffffffff1673ffffffffffffffffffffffffffffffffffffffff1673ffffffffffffffffffffffffffffffffffffffff168152602001908152602001600020600080898154811061099d5761099c610e94565b5b906000526020600020906006020160020154815260200190815260200160002060006101000a81548160ff021916908315150217905550600086815481106109e8576109e7610e94565b5b906000526020600020906006020160010160009054906101000a900473ffffffffffffffffffffffffffffffffffffffff1673ffffffffffffffffffffffffffffffffffffffff166342842e0e60008881548110610a4957610a48610e94565b5b906000526020600020906006020160030160009054906101000a900473ffffffffffffffffffffffffffffffffffffffff163360008a81548110610a9057610a8f610e94565b5b9060005260206000209060060201600201546040518463ffffffff1660e01b8152600401610ac0939291906110da565b600060405180830381600087803b158015610ada57600080fd5b505af1158015610aee573d6000803e3d6000fd5b5050505060008681548110610b0657610b05610e94565b5b906000526020600020906006020160030160009054906101000a900473ffffffffffffffffffffffffffffffffffffffff1673ffffffffffffffffffffffffffffffffffffffff166108fc349081150290604051600060405180830381858888f19350505050158015610b7d573d6000803e3d6000fd5b507f8164c6f8917e418c49813e4586897c7067de5a886aa1bea980cd11fa57d48264863360008981548110610bb557610bb4610e94565b5b906000526020600020906006020160040154604051610bd693929190611111565b60405180910390a1505050505050565b600080fd5b6000819050919050565b610bfe81610beb565b8114610c0957600080fd5b50565b600081359050610c1b81610bf5565b92915050565b600060208284031215610c3757610c36610be6565b5b6000610c4584828501610c0c565b91505092915050565b610c5781610beb565b82525050565b600073ffffffffffffffffffffffffffffffffffffffff82169050919050565b6000610c8882610c5d565b9050919050565b610c9881610c7d565b82525050565b6000610ca982610c5d565b9050919050565b610cb981610c9e565b82525050565b60008115159050919050565b610cd481610cbf565b82525050565b600060c082019050610cef6000830189610c4e565b610cfc6020830188610c8f565b610d096040830187610c4e565b610d166060830186610cb0565b610d236080830185610c4e565b610d3060a0830184610ccb565b979650505050505050565b610d4481610c7d565b8114610d4f57600080fd5b50565b600081359050610d6181610d3b565b92915050565b600080600060608486031215610d8057610d7f610be6565b5b6000610d8e86828701610c0c565b9350506020610d9f86828701610d52565b9250506040610db086828701610c0c565b9150509250925092565b6000602082019050610dcf6000830184610c4e565b92915050565b600081519050610de481610d3b565b92915050565b600060208284031215610e0057610dff610be6565b5b6000610e0e84828501610dd5565b91505092915050565b600082825260208201905092915050565b7f4974656d20697320616c726561647920757020666f722073616c652100000000600082015250565b6000610e5e601c83610e17565b9150610e6982610e28565b602082019050919050565b60006020820190508181036000830152610e8d81610e51565b9050919050565b7f4e487b7100000000000000000000000000000000000000000000000000000000600052603260045260246000fd5b7f4e487b7100000000000000000000000000000000000000000000000000000000600052600160045260246000fd5b6000608082019050610f076000830187610c4e565b610f146020830186610c4e565b610f216040830185610c8f565b610f2e6060830184610c4e565b95945050505050565b7f436f756c64206e6f742066696e64206974656d00000000000000000000000000600082015250565b6000610f6d601383610e17565b9150610f7882610f37565b602082019050919050565b60006020820190508181036000830152610f9c81610f60565b9050919050565b7f4974656d20697320616c726561647920736f6c64210000000000000000000000600082015250565b6000610fd9601583610e17565b9150610fe482610fa3565b602082019050919050565b6000602082019050818103600083015261100881610fcc565b9050919050565b7f4e6f7420656e6f7567682066756e64732073656e740000000000000000000000600082015250565b6000611045601583610e17565b91506110508261100f565b602082019050919050565b6000602082019050818103600083015261107481611038565b9050919050565b6000819050919050565b60006110a061109b61109684610c5d565b61107b565b610c5d565b9050919050565b60006110b282611085565b9050919050565b60006110c4826110a7565b9050919050565b6110d4816110b9565b82525050565b60006060820190506110ef60008301866110cb565b6110fc6020830185610c8f565b6111096040830184610c4e565b949350505050565b60006060820190506111266000830186610c4e565b6111336020830185610c8f565b6111406040830184610c4e565b94935050505056fea2646970667358221220ecf7923772e839247c3081ad99224e2bdb661a9db9746c5e276ce80ed21c8d6564736f6c634300080d0033",
  "immutableReferences": {},
  "source": "pragma solidity ^0.8.0;\r\n\r\nimport \"@openzeppelin/contracts/token/ERC721/IERC721.sol\";\r\n\r\ncontract CryptostanMarketContract {\r\n    struct AuctionItem {\r\n        uint256 id;\r\n        address tokenAddress;\r\n        uint256 tokenId;\r\n        address payable seller;\r\n        uint256 askingPrice;\r\n        bool isSold;\r\n    }\r\n\r\n    AuctionItem[] public itemsForSale;\r\n    mapping (address => mapping (uint256 => bool)) activeItems;\r\n\r\n    event itemAdded(uint256 id, uint256 tokenId, address tokenAddress, uint256 askingPrice);\r\n    event itemSold(uint256 id, address buyer, uint256 askingPrice);\r\n\r\n    modifier OnlyItemOwner(address tokenAddress, uint256 tokenId){\r\n        IERC721 tokenContract = IERC721(tokenAddress);\r\n        require(tokenContract.ownerOf(tokenId) == msg.sender);\r\n        _;\r\n    }\r\n\r\n    modifier HasTransferApproval(address tokenAddress, uint256 tokenId){\r\n        IERC721 tokenContract = IERC721(tokenAddress);\r\n        require(tokenContract.getApproved(tokenId) == address(this));\r\n        _;\r\n    }\r\n\r\n    modifier ItemExists(uint256 id){\r\n        require(id < itemsForSale.length && itemsForSale[id].id == id, \"Could not find item\");\r\n        _;\r\n    }\r\n\r\n    modifier IsForSale(uint256 id){\r\n        require(itemsForSale[id].isSold == false, \"Item is already sold!\");\r\n        _;\r\n    }\r\n\r\n    function addItemToMarket(uint256 tokenId, address tokenAddress, uint256 askingPrice) OnlyItemOwner(tokenAddress,tokenId) HasTransferApproval(tokenAddress,tokenId) external returns (uint256){\r\n        require(activeItems[tokenAddress][tokenId] == false, \"Item is already up for sale!\");\r\n        uint256 newItemId = itemsForSale.length;\r\n        itemsForSale.push(AuctionItem(newItemId, tokenAddress, tokenId, payable(msg.sender), askingPrice, false));\r\n        activeItems[tokenAddress][tokenId] = true;\r\n\r\n        assert(itemsForSale[newItemId].id == newItemId);\r\n        emit itemAdded(newItemId, tokenId, tokenAddress, askingPrice);\r\n        return newItemId;\r\n    }\r\n\r\n    function buyItem(uint256 id) payable external ItemExists(id) IsForSale(id) HasTransferApproval(itemsForSale[id].tokenAddress,itemsForSale[id].tokenId){\r\n        require(msg.value >= itemsForSale[id].askingPrice, \"Not enough funds sent\");\r\n        require(msg.sender != itemsForSale[id].seller);\r\n\r\n        itemsForSale[id].isSold = true;\r\n        activeItems[itemsForSale[id].tokenAddress][itemsForSale[id].tokenId] = false;\r\n        IERC721(itemsForSale[id].tokenAddress).safeTransferFrom(itemsForSale[id].seller, msg.sender, itemsForSale[id].tokenId);\r\n        itemsForSale[id].seller.transfer(msg.value);\r\n\r\n        emit itemSold(id, msg.sender,itemsForSale[id].askingPrice);\r\n    }\r\n}",
  "sourcePath": "C:\\Users\\Merphiles\\Desktop\\Cryptostan\\contracts\\contracts\\Marketplace.sol",
  "compiler": {
    "name": "solc",
    "version": "0.8.13+commit.abaa5c0e.Emscripten.clang"
  },
  "schemaVersion": "3.4.6",
  "updatedAt": "2022-03-31T17:38:32.907Z",
  "networkType": "ethereum",
  "devdoc": {
    "kind": "dev",
    "methods": {},
    "version": 1
  },
  "userdoc": {
    "kind": "user",
    "methods": {},
    "version": 1
  }
}